{
  "contractName": "AgriSupplyChain",
  "abi": [
    {
      "inputs": [],
      "stateMutability": "nonpayable",
      "type": "constructor"
    },
    {
      "anonymous": false,
      "inputs": [
        {
          "indexed": true,
          "internalType": "uint256",
          "name": "id",
          "type": "uint256"
        },
        {
          "indexed": false,
          "internalType": "uint256",
          "name": "distributorId",
          "type": "uint256"
        }
      ],
      "name": "ProductDistributed",
      "type": "event"
    },
    {
      "anonymous": false,
      "inputs": [
        {
          "indexed": true,
          "internalType": "uint256",
          "name": "id",
          "type": "uint256"
        },
        {
          "indexed": false,
          "internalType": "uint256",
          "name": "farmerId",
          "type": "uint256"
        }
      ],
      "name": "ProductHarvested",
      "type": "event"
    },
    {
      "anonymous": false,
      "inputs": [
        {
          "indexed": true,
          "internalType": "uint256",
          "name": "id",
          "type": "uint256"
        },
        {
          "indexed": false,
          "internalType": "uint256",
          "name": "farmerId",
          "type": "uint256"
        }
      ],
      "name": "ProductPlanted",
      "type": "event"
    },
    {
      "anonymous": false,
      "inputs": [
        {
          "indexed": true,
          "internalType": "uint256",
          "name": "id",
          "type": "uint256"
        },
        {
          "indexed": false,
          "internalType": "uint256",
          "name": "processorId",
          "type": "uint256"
        }
      ],
      "name": "ProductProcessed",
      "type": "event"
    },
    {
      "anonymous": false,
      "inputs": [
        {
          "indexed": true,
          "internalType": "uint256",
          "name": "id",
          "type": "uint256"
        },
        {
          "indexed": false,
          "internalType": "uint256",
          "name": "retailerId",
          "type": "uint256"
        }
      ],
      "name": "ProductReceived",
      "type": "event"
    },
    {
      "anonymous": false,
      "inputs": [
        {
          "indexed": true,
          "internalType": "uint256",
          "name": "id",
          "type": "uint256"
        },
        {
          "indexed": false,
          "internalType": "string",
          "name": "name",
          "type": "string"
        },
        {
          "indexed": false,
          "internalType": "string",
          "name": "description",
          "type": "string"
        }
      ],
      "name": "ProductRegistered",
      "type": "event"
    },
    {
      "anonymous": false,
      "inputs": [
        {
          "indexed": true,
          "internalType": "uint256",
          "name": "id",
          "type": "uint256"
        },
        {
          "indexed": false,
          "internalType": "uint256",
          "name": "retailerId",
          "type": "uint256"
        }
      ],
      "name": "ProductSold",
      "type": "event"
    },
    {
      "inputs": [
        {
          "internalType": "uint256",
          "name": "",
          "type": "uint256"
        }
      ],
      "name": "Distributors",
      "outputs": [
        {
          "internalType": "address",
          "name": "addr",
          "type": "address"
        },
        {
          "internalType": "uint256",
          "name": "id",
          "type": "uint256"
        },
        {
          "internalType": "string",
          "name": "name",
          "type": "string"
        },
        {
          "internalType": "string",
          "name": "location",
          "type": "string"
        }
      ],
      "stateMutability": "view",
      "type": "function",
      "constant": true
    },
    {
      "inputs": [
        {
          "internalType": "uint256",
          "name": "",
          "type": "uint256"
        }
      ],
      "name": "Farmers",
      "outputs": [
        {
          "internalType": "address",
          "name": "addr",
          "type": "address"
        },
        {
          "internalType": "uint256",
          "name": "id",
          "type": "uint256"
        },
        {
          "internalType": "string",
          "name": "name",
          "type": "string"
        },
        {
          "internalType": "string",
          "name": "location",
          "type": "string"
        }
      ],
      "stateMutability": "view",
      "type": "function",
      "constant": true
    },
    {
      "inputs": [],
      "name": "Owner",
      "outputs": [
        {
          "internalType": "address",
          "name": "",
          "type": "address"
        }
      ],
      "stateMutability": "view",
      "type": "function",
      "constant": true
    },
    {
      "inputs": [
        {
          "internalType": "uint256",
          "name": "",
          "type": "uint256"
        }
      ],
      "name": "Processors",
      "outputs": [
        {
          "internalType": "address",
          "name": "addr",
          "type": "address"
        },
        {
          "internalType": "uint256",
          "name": "id",
          "type": "uint256"
        },
        {
          "internalType": "string",
          "name": "name",
          "type": "string"
        },
        {
          "internalType": "string",
          "name": "location",
          "type": "string"
        }
      ],
      "stateMutability": "view",
      "type": "function",
      "constant": true
    },
    {
      "inputs": [
        {
          "internalType": "uint256",
          "name": "",
          "type": "uint256"
        }
      ],
      "name": "ProductStock",
      "outputs": [
        {
          "internalType": "uint256",
          "name": "id",
          "type": "uint256"
        },
        {
          "internalType": "string",
          "name": "name",
          "type": "string"
        },
        {
          "internalType": "string",
          "name": "description",
          "type": "string"
        },
        {
          "internalType": "uint256",
          "name": "farmerId",
          "type": "uint256"
        },
        {
          "internalType": "uint256",
          "name": "processorId",
          "type": "uint256"
        },
        {
          "internalType": "uint256",
          "name": "distributorId",
          "type": "uint256"
        },
        {
          "internalType": "uint256",
          "name": "retailerId",
          "type": "uint256"
        },
        {
          "internalType": "enum AgriSupplyChain.STAGE",
          "name": "stage",
          "type": "uint8"
        }
      ],
      "stateMutability": "view",
      "type": "function",
      "constant": true
    },
    {
      "inputs": [
        {
          "internalType": "uint256",
          "name": "",
          "type": "uint256"
        }
      ],
      "name": "Retailers",
      "outputs": [
        {
          "internalType": "address",
          "name": "addr",
          "type": "address"
        },
        {
          "internalType": "uint256",
          "name": "id",
          "type": "uint256"
        },
        {
          "internalType": "string",
          "name": "name",
          "type": "string"
        },
        {
          "internalType": "string",
          "name": "location",
          "type": "string"
        }
      ],
      "stateMutability": "view",
      "type": "function",
      "constant": true
    },
    {
      "inputs": [],
      "name": "distributorCtr",
      "outputs": [
        {
          "internalType": "uint256",
          "name": "",
          "type": "uint256"
        }
      ],
      "stateMutability": "view",
      "type": "function",
      "constant": true
    },
    {
      "inputs": [],
      "name": "farmerCtr",
      "outputs": [
        {
          "internalType": "uint256",
          "name": "",
          "type": "uint256"
        }
      ],
      "stateMutability": "view",
      "type": "function",
      "constant": true
    },
    {
      "inputs": [],
      "name": "processorCtr",
      "outputs": [
        {
          "internalType": "uint256",
          "name": "",
          "type": "uint256"
        }
      ],
      "stateMutability": "view",
      "type": "function",
      "constant": true
    },
    {
      "inputs": [],
      "name": "productCtr",
      "outputs": [
        {
          "internalType": "uint256",
          "name": "",
          "type": "uint256"
        }
      ],
      "stateMutability": "view",
      "type": "function",
      "constant": true
    },
    {
      "inputs": [],
      "name": "retailerCtr",
      "outputs": [
        {
          "internalType": "uint256",
          "name": "",
          "type": "uint256"
        }
      ],
      "stateMutability": "view",
      "type": "function",
      "constant": true
    },
    {
      "inputs": [
        {
          "internalType": "uint256",
          "name": "_productId",
          "type": "uint256"
        }
      ],
      "name": "showStage",
      "outputs": [
        {
          "internalType": "string",
          "name": "",
          "type": "string"
        }
      ],
      "stateMutability": "view",
      "type": "function",
      "constant": true
    },
    {
      "inputs": [
        {
          "internalType": "address",
          "name": "_address",
          "type": "address"
        },
        {
          "internalType": "string",
          "name": "_name",
          "type": "string"
        },
        {
          "internalType": "string",
          "name": "_location",
          "type": "string"
        }
      ],
      "name": "addFarmer",
      "outputs": [],
      "stateMutability": "nonpayable",
      "type": "function"
    },
    {
      "inputs": [
        {
          "internalType": "address",
          "name": "_address",
          "type": "address"
        },
        {
          "internalType": "string",
          "name": "_name",
          "type": "string"
        },
        {
          "internalType": "string",
          "name": "_location",
          "type": "string"
        }
      ],
      "name": "addProcessor",
      "outputs": [],
      "stateMutability": "nonpayable",
      "type": "function"
    },
    {
      "inputs": [
        {
          "internalType": "address",
          "name": "_address",
          "type": "address"
        },
        {
          "internalType": "string",
          "name": "_name",
          "type": "string"
        },
        {
          "internalType": "string",
          "name": "_location",
          "type": "string"
        }
      ],
      "name": "addDistributor",
      "outputs": [],
      "stateMutability": "nonpayable",
      "type": "function"
    },
    {
      "inputs": [
        {
          "internalType": "address",
          "name": "_address",
          "type": "address"
        },
        {
          "internalType": "string",
          "name": "_name",
          "type": "string"
        },
        {
          "internalType": "string",
          "name": "_location",
          "type": "string"
        }
      ],
      "name": "addRetailer",
      "outputs": [],
      "stateMutability": "nonpayable",
      "type": "function"
    },
    {
      "inputs": [
        {
          "internalType": "address",
          "name": "_user",
          "type": "address"
        }
      ],
      "name": "getUserRole",
      "outputs": [
        {
          "internalType": "string",
          "name": "",
          "type": "string"
        }
      ],
      "stateMutability": "view",
      "type": "function",
      "constant": true
    },
    {
      "inputs": [
        {
          "internalType": "uint256",
          "name": "_productId",
          "type": "uint256"
        }
      ],
      "name": "plantProduct",
      "outputs": [],
      "stateMutability": "nonpayable",
      "type": "function"
    },
    {
      "inputs": [
        {
          "internalType": "uint256",
          "name": "_productId",
          "type": "uint256"
        }
      ],
      "name": "harvestProduct",
      "outputs": [],
      "stateMutability": "nonpayable",
      "type": "function"
    },
    {
      "inputs": [
        {
          "internalType": "uint256",
          "name": "_productId",
          "type": "uint256"
        }
      ],
      "name": "processProduct",
      "outputs": [],
      "stateMutability": "nonpayable",
      "type": "function"
    },
    {
      "inputs": [
        {
          "internalType": "uint256",
          "name": "_productId",
          "type": "uint256"
        }
      ],
      "name": "distributeProduct",
      "outputs": [],
      "stateMutability": "nonpayable",
      "type": "function"
    },
    {
      "inputs": [
        {
          "internalType": "uint256",
          "name": "_productId",
          "type": "uint256"
        }
      ],
      "name": "receiveProduct",
      "outputs": [],
      "stateMutability": "nonpayable",
      "type": "function"
    },
    {
      "inputs": [
        {
          "internalType": "uint256",
          "name": "_productId",
          "type": "uint256"
        }
      ],
      "name": "sellProduct",
      "outputs": [],
      "stateMutability": "nonpayable",
      "type": "function"
    },
    {
      "inputs": [
        {
          "internalType": "string",
          "name": "_name",
          "type": "string"
        },
        {
          "internalType": "string",
          "name": "_description",
          "type": "string"
        }
      ],
      "name": "addProduct",
      "outputs": [],
      "stateMutability": "nonpayable",
      "type": "function"
    }
  ],
  "bytecode": "0x60806040526000600155600060025560006003556000600455600060055534801561002957600080fd5b50336000806101000a81548173ffffffffffffffffffffffffffffffffffffffff021916908373ffffffffffffffffffffffffffffffffffffffff160217905550613848806100796000396000f3fe608060405234801561001057600080fd5b50600436106101585760003560e01c80637acd0789116100c3578063d4eb879b1161007c578063d4eb879b146103d1578063d85456a4146103ef578063e101a2e014610422578063e101f66414610452578063e1aa665f1461046e578063e9bf6b4c1461048c57610158565b80637acd078914610323578063857ddb041461033f578063a64ca9161461035b578063aaea34aa14610379578063b4a99a4e14610397578063ca2efb55146103b557610158565b8063492deb1511610115578063492deb151461021b5780634bda300e1461023757806351bc37b81461026a5780635573d8b21461029d57806366abf708146102d45780636ce2cc701461030757610158565b80630e4000db1461015d578063278208511461017957806329d78328146101a95780632a4af440146101c55780632e2af791146101e15780633238b16b146101fd575b600080fd5b61017760048036038101906101729190612fbf565b6104a8565b005b610193600480360381019061018e9190612eab565b6106db565b6040516101a09190613348565b60405180910390f35b6101c360048036038101906101be9190612fbf565b610a4b565b005b6101df60048036038101906101da9190612ed4565b610c7e565b005b6101fb60048036038101906101f69190612fbf565b610e05565b005b61020561103e565b60405161021291906134c1565b60405180910390f35b61023560048036038101906102309190612fbf565b611044565b005b610251600480360381019061024c9190612fbf565b61127c565b60405161026194939291906132f5565b60405180910390f35b610284600480360381019061027f9190612fbf565b6113dc565b60405161029494939291906132f5565b60405180910390f35b6102b760048036038101906102b29190612fbf565b61153c565b6040516102cb9897969594939291906134dc565b60405180910390f35b6102ee60048036038101906102e99190612fbf565b6116a1565b6040516102fe94939291906132f5565b60405180910390f35b610321600480360381019061031c9190612fbf565b611801565b005b61033d60048036038101906103389190612ed4565b611a34565b005b61035960048036038101906103549190612ed4565b611bbb565b005b610363611d42565b60405161037091906134c1565b60405180910390f35b610381611d48565b60405161038e91906134c1565b60405180910390f35b61039f611d4e565b6040516103ac91906132da565b60405180910390f35b6103cf60048036038101906103ca9190612f53565b611d72565b005b6103d961201a565b6040516103e691906134c1565b60405180910390f35b61040960048036038101906104049190612fbf565b612020565b60405161041994939291906132f5565b60405180910390f35b61043c60048036038101906104379190612fbf565b612180565b6040516104499190613348565b60405180910390f35b61046c60048036038101906104679190612fbf565b61272e565b005b610476612961565b60405161048391906134c1565b60405180910390f35b6104a660048036038101906104a19190612ed4565b612967565b005b6000811180156104ba57506001548111155b6104f9576040517f08c379a00000000000000000000000000000000000000000000000000000000081526004016104f090613461565b60405180910390fd5b600061050433612aee565b905060008111610549576040517f08c379a000000000000000000000000000000000000000000000000000000000815260040161054090613441565b60405180910390fd5b60036006811115610583577f4e487b7100000000000000000000000000000000000000000000000000000000600052602160045260246000fd5b6006600084815260200190815260200160002060070160009054906101000a900460ff1660068111156105df577f4e487b7100000000000000000000000000000000000000000000000000000000600052602160045260246000fd5b1461061f576040517f08c379a0000000000000000000000000000000000000000000000000000000008152600401610616906133e1565b60405180910390fd5b80600660008481526020019081526020016000206005018190555060046006600084815260200190815260200160002060070160006101000a81548160ff0219169083600681111561069a577f4e487b7100000000000000000000000000000000000000000000000000000000600052602160045260246000fd5b0217905550817f63487d0c4cd6b363d7e29a5653e40f2d7711925b88aab0194e43f63881836c65826040516106cf91906134c1565b60405180910390a25050565b60606000600190505b60025481116107a8578273ffffffffffffffffffffffffffffffffffffffff166007600083815260200190815260200160002060000160009054906101000a900473ffffffffffffffffffffffffffffffffffffffff1673ffffffffffffffffffffffffffffffffffffffff161415610795576040518060400160405280600681526020017f4661726d65720000000000000000000000000000000000000000000000000000815250915050610a46565b80806107a0906136ba565b9150506106e4565b506000600190505b6003548111610874578273ffffffffffffffffffffffffffffffffffffffff166008600083815260200190815260200160002060000160009054906101000a900473ffffffffffffffffffffffffffffffffffffffff1673ffffffffffffffffffffffffffffffffffffffff161415610861576040518060400160405280600981526020017f50726f636573736f720000000000000000000000000000000000000000000000815250915050610a46565b808061086c906136ba565b9150506107b0565b506000600190505b6004548111610940578273ffffffffffffffffffffffffffffffffffffffff166009600083815260200190815260200160002060000160009054906101000a900473ffffffffffffffffffffffffffffffffffffffff1673ffffffffffffffffffffffffffffffffffffffff16141561092d576040518060400160405280600b81526020017f4469737472696275746f72000000000000000000000000000000000000000000815250915050610a46565b8080610938906136ba565b91505061087c565b506000600190505b6005548111610a0c578273ffffffffffffffffffffffffffffffffffffffff16600a600083815260200190815260200160002060000160009054906101000a900473ffffffffffffffffffffffffffffffffffffffff1673ffffffffffffffffffffffffffffffffffffffff1614156109f9576040518060400160405280600881526020017f52657461696c6572000000000000000000000000000000000000000000000000815250915050610a46565b8080610a04906136ba565b915050610948565b506040518060400160405280600781526020017f556e6b6e6f776e0000000000000000000000000000000000000000000000000081525090505b919050565b600081118015610a5d57506001548111155b610a9c576040517f08c379a0000000000000000000000000000000000000000000000000000000008152600401610a9390613461565b60405180910390fd5b6000610aa733612b90565b905060008111610aec576040517f08c379a0000000000000000000000000000000000000000000000000000000008152600401610ae390613481565b60405180910390fd5b60046006811115610b26577f4e487b7100000000000000000000000000000000000000000000000000000000600052602160045260246000fd5b6006600084815260200190815260200160002060070160009054906101000a900460ff166006811115610b82577f4e487b7100000000000000000000000000000000000000000000000000000000600052602160045260246000fd5b14610bc2576040517f08c379a0000000000000000000000000000000000000000000000000000000008152600401610bb9906133e1565b60405180910390fd5b80600660008481526020019081526020016000206006018190555060056006600084815260200190815260200160002060070160006101000a81548160ff02191690836006811115610c3d577f4e487b7100000000000000000000000000000000000000000000000000000000600052602160045260246000fd5b0217905550817f9c98932b9d11a13740a99d32694a48d8dd422daf1ee16f0f4f417171474f4d7782604051610c7291906134c1565b60405180910390a25050565b60008054906101000a900473ffffffffffffffffffffffffffffffffffffffff1673ffffffffffffffffffffffffffffffffffffffff163373ffffffffffffffffffffffffffffffffffffffff1614610d0c576040517f08c379a0000000000000000000000000000000000000000000000000000000008152600401610d03906134a1565b60405180910390fd5b60046000815480929190610d1f906136ba565b919050555060405180608001604052808473ffffffffffffffffffffffffffffffffffffffff16815260200160045481526020018381526020018281525060096000600454815260200190815260200160002060008201518160000160006101000a81548173ffffffffffffffffffffffffffffffffffffffff021916908373ffffffffffffffffffffffffffffffffffffffff160217905550602082015181600101556040820151816002019080519060200190610ddf929190612d76565b506060820151816003019080519060200190610dfc929190612d76565b50905050505050565b600081118015610e1757506001548111155b610e56576040517f08c379a0000000000000000000000000000000000000000000000000000000008152600401610e4d90613461565b60405180910390fd5b6000610e6133612c32565b9050600081118015610e885750600660008381526020019081526020016000206003015481145b610ec7576040517f08c379a0000000000000000000000000000000000000000000000000000000008152600401610ebe906133a1565b60405180910390fd5b60016006811115610f01577f4e487b7100000000000000000000000000000000000000000000000000000000600052602160045260246000fd5b6006600084815260200190815260200160002060070160009054906101000a900460ff166006811115610f5d577f4e487b7100000000000000000000000000000000000000000000000000000000600052602160045260246000fd5b14610f9d576040517f08c379a0000000000000000000000000000000000000000000000000000000008152600401610f94906133e1565b60405180910390fd5b60026006600084815260200190815260200160002060070160006101000a81548160ff02191690836006811115610ffd577f4e487b7100000000000000000000000000000000000000000000000000000000600052602160045260246000fd5b0217905550817f5c5050ff0eef46e09811c8aad89c5b12eadbc7a250e3055075708e08289b037a8260405161103291906134c1565b60405180910390a25050565b60055481565b60008111801561105657506001548111155b611095576040517f08c379a000000000000000000000000000000000000000000000000000000000815260040161108c90613461565b60405180910390fd5b60006110a033612b90565b90506000811180156110c75750600660008381526020019081526020016000206006015481145b611106576040517f08c379a00000000000000000000000000000000000000000000000000000000081526004016110fd90613481565b60405180910390fd5b60056006811115611140577f4e487b7100000000000000000000000000000000000000000000000000000000600052602160045260246000fd5b6006600084815260200190815260200160002060070160009054906101000a900460ff16600681111561119c577f4e487b7100000000000000000000000000000000000000000000000000000000600052602160045260246000fd5b146111dc576040517f08c379a00000000000000000000000000000000000000000000000000000000081526004016111d3906133e1565b60405180910390fd5b600680600084815260200190815260200160002060070160006101000a81548160ff0219169083600681111561123b577f4e487b7100000000000000000000000000000000000000000000000000000000600052602160045260246000fd5b0217905550817f23a1684ce44b9a79ff32baebeef9269b128c6e21d507a2374852b1bb483250278260405161127091906134c1565b60405180910390a25050565b60086020528060005260406000206000915090508060000160009054906101000a900473ffffffffffffffffffffffffffffffffffffffff16908060010154908060020180546112cb90613688565b80601f01602080910402602001604051908101604052809291908181526020018280546112f790613688565b80156113445780601f1061131957610100808354040283529160200191611344565b820191906000526020600020905b81548152906001019060200180831161132757829003601f168201915b50505050509080600301805461135990613688565b80601f016020809104026020016040519081016040528092919081815260200182805461138590613688565b80156113d25780601f106113a7576101008083540402835291602001916113d2565b820191906000526020600020905b8154815290600101906020018083116113b557829003601f168201915b5050505050905084565b60096020528060005260406000206000915090508060000160009054906101000a900473ffffffffffffffffffffffffffffffffffffffff169080600101549080600201805461142b90613688565b80601f016020809104026020016040519081016040528092919081815260200182805461145790613688565b80156114a45780601f10611479576101008083540402835291602001916114a4565b820191906000526020600020905b81548152906001019060200180831161148757829003601f168201915b5050505050908060030180546114b990613688565b80601f01602080910402602001604051908101604052809291908181526020018280546114e590613688565b80156115325780601f1061150757610100808354040283529160200191611532565b820191906000526020600020905b81548152906001019060200180831161151557829003601f168201915b5050505050905084565b600660205280600052604060002060009150905080600001549080600101805461156590613688565b80601f016020809104026020016040519081016040528092919081815260200182805461159190613688565b80156115de5780601f106115b3576101008083540402835291602001916115de565b820191906000526020600020905b8154815290600101906020018083116115c157829003601f168201915b5050505050908060020180546115f390613688565b80601f016020809104026020016040519081016040528092919081815260200182805461161f90613688565b801561166c5780601f106116415761010080835404028352916020019161166c565b820191906000526020600020905b81548152906001019060200180831161164f57829003601f168201915b5050505050908060030154908060040154908060050154908060060154908060070160009054906101000a900460ff16905088565b60076020528060005260406000206000915090508060000160009054906101000a900473ffffffffffffffffffffffffffffffffffffffff16908060010154908060020180546116f090613688565b80601f016020809104026020016040519081016040528092919081815260200182805461171c90613688565b80156117695780601f1061173e57610100808354040283529160200191611769565b820191906000526020600020905b81548152906001019060200180831161174c57829003601f168201915b50505050509080600301805461177e90613688565b80601f01602080910402602001604051908101604052809291908181526020018280546117aa90613688565b80156117f75780601f106117cc576101008083540402835291602001916117f7565b820191906000526020600020905b8154815290600101906020018083116117da57829003601f168201915b5050505050905084565b60008111801561181357506001548111155b611852576040517f08c379a000000000000000000000000000000000000000000000000000000000815260040161184990613461565b60405180910390fd5b600061185d33612c32565b9050600081116118a2576040517f08c379a0000000000000000000000000000000000000000000000000000000008152600401611899906133a1565b60405180910390fd5b600060068111156118dc577f4e487b7100000000000000000000000000000000000000000000000000000000600052602160045260246000fd5b6006600084815260200190815260200160002060070160009054906101000a900460ff166006811115611938577f4e487b7100000000000000000000000000000000000000000000000000000000600052602160045260246000fd5b14611978576040517f08c379a000000000000000000000000000000000000000000000000000000000815260040161196f906133e1565b60405180910390fd5b80600660008481526020019081526020016000206003018190555060016006600084815260200190815260200160002060070160006101000a81548160ff021916908360068111156119f3577f4e487b7100000000000000000000000000000000000000000000000000000000600052602160045260246000fd5b0217905550817fc28530a4519237ef20343b4c8596a343c18010c0cab801d52196fe821369ff8482604051611a2891906134c1565b60405180910390a25050565b60008054906101000a900473ffffffffffffffffffffffffffffffffffffffff1673ffffffffffffffffffffffffffffffffffffffff163373ffffffffffffffffffffffffffffffffffffffff1614611ac2576040517f08c379a0000000000000000000000000000000000000000000000000000000008152600401611ab9906134a1565b60405180910390fd5b60036000815480929190611ad5906136ba565b919050555060405180608001604052808473ffffffffffffffffffffffffffffffffffffffff16815260200160035481526020018381526020018281525060086000600354815260200190815260200160002060008201518160000160006101000a81548173ffffffffffffffffffffffffffffffffffffffff021916908373ffffffffffffffffffffffffffffffffffffffff160217905550602082015181600101556040820151816002019080519060200190611b95929190612d76565b506060820151816003019080519060200190611bb2929190612d76565b50905050505050565b60008054906101000a900473ffffffffffffffffffffffffffffffffffffffff1673ffffffffffffffffffffffffffffffffffffffff163373ffffffffffffffffffffffffffffffffffffffff1614611c49576040517f08c379a0000000000000000000000000000000000000000000000000000000008152600401611c40906134a1565b60405180910390fd5b60056000815480929190611c5c906136ba565b919050555060405180608001604052808473ffffffffffffffffffffffffffffffffffffffff168152602001600554815260200183815260200182815250600a6000600554815260200190815260200160002060008201518160000160006101000a81548173ffffffffffffffffffffffffffffffffffffffff021916908373ffffffffffffffffffffffffffffffffffffffff160217905550602082015181600101556040820151816002019080519060200190611d1c929190612d76565b506060820151816003019080519060200190611d39929190612d76565b50905050505050565b60035481565b60015481565b60008054906101000a900473ffffffffffffffffffffffffffffffffffffffff1681565b60008054906101000a900473ffffffffffffffffffffffffffffffffffffffff1673ffffffffffffffffffffffffffffffffffffffff163373ffffffffffffffffffffffffffffffffffffffff1614611e00576040517f08c379a0000000000000000000000000000000000000000000000000000000008152600401611df7906134a1565b60405180910390fd5b6000600254118015611e1457506000600354115b8015611e2257506000600454115b8015611e3057506000600554115b611e6f576040517f08c379a0000000000000000000000000000000000000000000000000000000008152600401611e6690613401565b60405180910390fd5b60016000815480929190611e82906136ba565b919050555060405180610100016040528060015481526020018381526020018281526020016000815260200160008152602001600081526020016000815260200160006006811115611efd577f4e487b7100000000000000000000000000000000000000000000000000000000600052602160045260246000fd5b815250600660006001548152602001908152602001600020600082015181600001556020820151816001019080519060200190611f3b929190612d76565b506040820151816002019080519060200190611f58929190612d76565b50606082015181600301556080820151816004015560a0820151816005015560c0820151816006015560e08201518160070160006101000a81548160ff02191690836006811115611fd2577f4e487b7100000000000000000000000000000000000000000000000000000000600052602160045260246000fd5b02179055509050506001547fbb788d1bdfb4363138615cb6605f118fc2eb506f6efd90abf0dcc727458e5db7838360405161200e92919061336a565b60405180910390a25050565b60045481565b600a6020528060005260406000206000915090508060000160009054906101000a900473ffffffffffffffffffffffffffffffffffffffff169080600101549080600201805461206f90613688565b80601f016020809104026020016040519081016040528092919081815260200182805461209b90613688565b80156120e85780601f106120bd576101008083540402835291602001916120e8565b820191906000526020600020905b8154815290600101906020018083116120cb57829003601f168201915b5050505050908060030180546120fd90613688565b80601f016020809104026020016040519081016040528092919081815260200182805461212990613688565b80156121765780601f1061214b57610100808354040283529160200191612176565b820191906000526020600020905b81548152906001019060200180831161215957829003601f168201915b5050505050905084565b60606000600154116121c7576040517f08c379a00000000000000000000000000000000000000000000000000000000081526004016121be90613421565b60405180910390fd5b60006006600084815260200190815260200160002060070160009054906101000a900460ff16905060006006811115612229577f4e487b7100000000000000000000000000000000000000000000000000000000600052602160045260246000fd5b816006811115612262577f4e487b7100000000000000000000000000000000000000000000000000000000600052602160045260246000fd5b14156122a6576040518060400160405280601281526020017f50726f6475637420526567697374657265640000000000000000000000000000815250915050612729565b600160068111156122e0577f4e487b7100000000000000000000000000000000000000000000000000000000600052602160045260246000fd5b816006811115612319577f4e487b7100000000000000000000000000000000000000000000000000000000600052602160045260246000fd5b141561235d576040518060400160405280600781526020017f506c616e74656400000000000000000000000000000000000000000000000000815250915050612729565b60026006811115612397577f4e487b7100000000000000000000000000000000000000000000000000000000600052602160045260246000fd5b8160068111156123d0577f4e487b7100000000000000000000000000000000000000000000000000000000600052602160045260246000fd5b1415612414576040518060400160405280600981526020017f4861727665737465640000000000000000000000000000000000000000000000815250915050612729565b6003600681111561244e577f4e487b7100000000000000000000000000000000000000000000000000000000600052602160045260246000fd5b816006811115612487577f4e487b7100000000000000000000000000000000000000000000000000000000600052602160045260246000fd5b14156124cb576040518060400160405280600981526020017f50726f6365737365640000000000000000000000000000000000000000000000815250915050612729565b60046006811115612505577f4e487b7100000000000000000000000000000000000000000000000000000000600052602160045260246000fd5b81600681111561253e577f4e487b7100000000000000000000000000000000000000000000000000000000600052602160045260246000fd5b1415612582576040518060400160405280600b81526020017f4469737472696275746564000000000000000000000000000000000000000000815250915050612729565b600560068111156125bc577f4e487b7100000000000000000000000000000000000000000000000000000000600052602160045260246000fd5b8160068111156125f5577f4e487b7100000000000000000000000000000000000000000000000000000000600052602160045260246000fd5b1415612639576040518060400160405280600981526020017f496e2052657461696c0000000000000000000000000000000000000000000000815250915050612729565b600680811115612672577f4e487b7100000000000000000000000000000000000000000000000000000000600052602160045260246000fd5b8160068111156126ab577f4e487b7100000000000000000000000000000000000000000000000000000000600052602160045260246000fd5b14156126ef576040518060400160405280600481526020017f536f6c6400000000000000000000000000000000000000000000000000000000815250915050612729565b6040518060400160405280600d81526020017f556e6b6e6f776e205374616765000000000000000000000000000000000000008152509150505b919050565b60008111801561274057506001548111155b61277f576040517f08c379a000000000000000000000000000000000000000000000000000000000815260040161277690613461565b60405180910390fd5b600061278a33612cd4565b9050600081116127cf576040517f08c379a00000000000000000000000000000000000000000000000000000000081526004016127c6906133c1565b60405180910390fd5b60026006811115612809577f4e487b7100000000000000000000000000000000000000000000000000000000600052602160045260246000fd5b6006600084815260200190815260200160002060070160009054906101000a900460ff166006811115612865577f4e487b7100000000000000000000000000000000000000000000000000000000600052602160045260246000fd5b146128a5576040517f08c379a000000000000000000000000000000000000000000000000000000000815260040161289c906133e1565b60405180910390fd5b80600660008481526020019081526020016000206004018190555060036006600084815260200190815260200160002060070160006101000a81548160ff02191690836006811115612920577f4e487b7100000000000000000000000000000000000000000000000000000000600052602160045260246000fd5b0217905550817fbccca09e0341bd2f139a1ae251a4fdfee344bfe4d97469dd55d5b202fddc9f368260405161295591906134c1565b60405180910390a25050565b60025481565b60008054906101000a900473ffffffffffffffffffffffffffffffffffffffff1673ffffffffffffffffffffffffffffffffffffffff163373ffffffffffffffffffffffffffffffffffffffff16146129f5576040517f08c379a00000000000000000000000000000000000000000000000000000000081526004016129ec906134a1565b60405180910390fd5b60026000815480929190612a08906136ba565b919050555060405180608001604052808473ffffffffffffffffffffffffffffffffffffffff16815260200160025481526020018381526020018281525060076000600254815260200190815260200160002060008201518160000160006101000a81548173ffffffffffffffffffffffffffffffffffffffff021916908373ffffffffffffffffffffffffffffffffffffffff160217905550602082015181600101556040820151816002019080519060200190612ac8929190612d76565b506060820151816003019080519060200190612ae5929190612d76565b50905050505050565b600080600190505b6004548111612b85578273ffffffffffffffffffffffffffffffffffffffff166009600083815260200190815260200160002060000160009054906101000a900473ffffffffffffffffffffffffffffffffffffffff1673ffffffffffffffffffffffffffffffffffffffff161415612b725780915050612b8b565b8080612b7d906136ba565b915050612af6565b50600090505b919050565b600080600190505b6005548111612c27578273ffffffffffffffffffffffffffffffffffffffff16600a600083815260200190815260200160002060000160009054906101000a900473ffffffffffffffffffffffffffffffffffffffff1673ffffffffffffffffffffffffffffffffffffffff161415612c145780915050612c2d565b8080612c1f906136ba565b915050612b98565b50600090505b919050565b600080600190505b6002548111612cc9578273ffffffffffffffffffffffffffffffffffffffff166007600083815260200190815260200160002060000160009054906101000a900473ffffffffffffffffffffffffffffffffffffffff1673ffffffffffffffffffffffffffffffffffffffff161415612cb65780915050612ccf565b8080612cc1906136ba565b915050612c3a565b50600090505b919050565b600080600190505b6003548111612d6b578273ffffffffffffffffffffffffffffffffffffffff166008600083815260200190815260200160002060000160009054906101000a900473ffffffffffffffffffffffffffffffffffffffff1673ffffffffffffffffffffffffffffffffffffffff161415612d585780915050612d71565b8080612d63906136ba565b915050612cdc565b50600090505b919050565b828054612d8290613688565b90600052602060002090601f016020900481019282612da45760008555612deb565b82601f10612dbd57805160ff1916838001178555612deb565b82800160010185558215612deb579182015b82811115612dea578251825591602001919060010190612dcf565b5b509050612df89190612dfc565b5090565b5b80821115612e15576000816000905550600101612dfd565b5090565b6000612e2c612e2784613599565b613568565b905082815260208101848484011115612e4457600080fd5b612e4f848285613646565b509392505050565b600081359050612e66816137e4565b92915050565b600082601f830112612e7d57600080fd5b8135612e8d848260208601612e19565b91505092915050565b600081359050612ea5816137fb565b92915050565b600060208284031215612ebd57600080fd5b6000612ecb84828501612e57565b91505092915050565b600080600060608486031215612ee957600080fd5b6000612ef786828701612e57565b935050602084013567ffffffffffffffff811115612f1457600080fd5b612f2086828701612e6c565b925050604084013567ffffffffffffffff811115612f3d57600080fd5b612f4986828701612e6c565b9150509250925092565b60008060408385031215612f6657600080fd5b600083013567ffffffffffffffff811115612f8057600080fd5b612f8c85828601612e6c565b925050602083013567ffffffffffffffff811115612fa957600080fd5b612fb585828601612e6c565b9150509250929050565b600060208284031215612fd157600080fd5b6000612fdf84828501612e96565b91505092915050565b612ff1816135e5565b82525050565b61300081613634565b82525050565b6000613011826135c9565b61301b81856135d4565b935061302b818560208601613655565b613034816137bf565b840191505092915050565b600061304c6013836135d4565b91507f556e617574686f72697a6564206661726d6572000000000000000000000000006000830152602082019050919050565b600061308c6016836135d4565b91507f556e617574686f72697a65642070726f636573736f72000000000000000000006000830152602082019050919050565b60006130cc6018836135d4565b91507f496e76616c6964207374616765207472616e736974696f6e00000000000000006000830152602082019050919050565b600061310c6022836135d4565b91507f416c6c20726f6c6573206d75737420626520726567697374657265642066697260008301527f73740000000000000000000000000000000000000000000000000000000000006020830152604082019050919050565b6000613172601a836135d4565b91507f4e6f2070726f64756374732072656769737465726564207965740000000000006000830152602082019050919050565b60006131b26018836135d4565b91507f556e617574686f72697a6564206469737472696275746f7200000000000000006000830152602082019050919050565b60006131f26012836135d4565b91507f496e76616c69642070726f6475637420494400000000000000000000000000006000830152602082019050919050565b60006132326015836135d4565b91507f556e617574686f72697a65642072657461696c657200000000000000000000006000830152602082019050919050565b60006132726022836135d4565b91507f4f6e6c79206f776e65722063616e20706572666f726d2074686973206163746960008301527f6f6e0000000000000000000000000000000000000000000000000000000000006020830152604082019050919050565b6132d48161362a565b82525050565b60006020820190506132ef6000830184612fe8565b92915050565b600060808201905061330a6000830187612fe8565b61331760208301866132cb565b81810360408301526133298185613006565b9050818103606083015261333d8184613006565b905095945050505050565b600060208201905081810360008301526133628184613006565b905092915050565b600060408201905081810360008301526133848185613006565b905081810360208301526133988184613006565b90509392505050565b600060208201905081810360008301526133ba8161303f565b9050919050565b600060208201905081810360008301526133da8161307f565b9050919050565b600060208201905081810360008301526133fa816130bf565b9050919050565b6000602082019050818103600083015261341a816130ff565b9050919050565b6000602082019050818103600083015261343a81613165565b9050919050565b6000602082019050818103600083015261345a816131a5565b9050919050565b6000602082019050818103600083015261347a816131e5565b9050919050565b6000602082019050818103600083015261349a81613225565b9050919050565b600060208201905081810360008301526134ba81613265565b9050919050565b60006020820190506134d660008301846132cb565b92915050565b6000610100820190506134f2600083018b6132cb565b8181036020830152613504818a613006565b905081810360408301526135188189613006565b905061352760608301886132cb565b61353460808301876132cb565b61354160a08301866132cb565b61354e60c08301856132cb565b61355b60e0830184612ff7565b9998505050505050505050565b6000604051905081810181811067ffffffffffffffff8211171561358f5761358e613790565b5b8060405250919050565b600067ffffffffffffffff8211156135b4576135b3613790565b5b601f19601f8301169050602081019050919050565b600081519050919050565b600082825260208201905092915050565b60006135f08261360a565b9050919050565b6000819050613605826137d0565b919050565b600073ffffffffffffffffffffffffffffffffffffffff82169050919050565b6000819050919050565b600061363f826135f7565b9050919050565b82818337600083830152505050565b60005b83811015613673578082015181840152602081019050613658565b83811115613682576000848401525b50505050565b600060028204905060018216806136a057607f821691505b602082108114156136b4576136b3613761565b5b50919050565b60006136c58261362a565b91507fffffffffffffffffffffffffffffffffffffffffffffffffffffffffffffffff8214156136f8576136f7613703565b5b600182019050919050565b7f4e487b7100000000000000000000000000000000000000000000000000000000600052601160045260246000fd5b7f4e487b7100000000000000000000000000000000000000000000000000000000600052602160045260246000fd5b7f4e487b7100000000000000000000000000000000000000000000000000000000600052602260045260246000fd5b7f4e487b7100000000000000000000000000000000000000000000000000000000600052604160045260246000fd5b6000601f19601f8301169050919050565b600781106137e1576137e0613732565b5b50565b6137ed816135e5565b81146137f857600080fd5b50565b6138048161362a565b811461380f57600080fd5b5056fea2646970667358221220df7bbc5fe43be7dd3b7cd4a31fa0676086deadd79036c741e9968257eaccca7264736f6c63430008000033",
  "immutableReferences": {},
  "source": "// SPDX-License-Identifier: MIT\npragma solidity >=0.4.22 <0.9.0;\n\ncontract AgriSupplyChain {\n    address public Owner;\n\n    constructor() {\n        Owner = msg.sender;\n    }\n\n    modifier onlyByOwner() {\n        require(msg.sender == Owner, \"Only owner can perform this action\");\n        _;\n    }\n\n    enum STAGE {\n        Registered,\n        Planted,\n        Harvested,\n        Processed,\n        Distributed,\n        Retail,\n        Sold\n    }\n\n    // Counters\n    uint256 public productCtr = 0;\n    uint256 public farmerCtr = 0;\n    uint256 public processorCtr = 0;\n    uint256 public distributorCtr = 0;\n    uint256 public retailerCtr = 0;\n\n    struct AgriculturalProduct {\n        uint256 id;\n        string name;\n        string description;\n        uint256 farmerId;\n        uint256 processorId;\n        uint256 distributorId;\n        uint256 retailerId;\n        STAGE stage;\n    }\n\n    mapping(uint256 => AgriculturalProduct) public ProductStock;\n\n    function showStage(uint256 _productId) public view returns (string memory) {\n        require(productCtr > 0, \"No products registered yet\");\n        STAGE currentStage = ProductStock[_productId].stage;\n\n        if (currentStage == STAGE.Registered) return \"Product Registered\";\n        if (currentStage == STAGE.Planted) return \"Planted\";\n        if (currentStage == STAGE.Harvested) return \"Harvested\";\n        if (currentStage == STAGE.Processed) return \"Processed\";\n        if (currentStage == STAGE.Distributed) return \"Distributed\";\n        if (currentStage == STAGE.Retail) return \"In Retail\";\n        if (currentStage == STAGE.Sold) return \"Sold\";\n        return \"Unknown Stage\";\n    }\n\n    // Role Structures\n    struct Farmer {\n        address addr;\n        uint256 id;\n        string name;\n        string location;\n    }\n\n    struct Processor {\n        address addr;\n        uint256 id;\n        string name;\n        string location;\n    }\n\n    struct Distributor {\n        address addr;\n        uint256 id;\n        string name;\n        string location;\n    }\n\n    struct Retailer {\n        address addr;\n        uint256 id;\n        string name;\n        string location;\n    }\n\n    // Role Mappings\n    mapping(uint256 => Farmer) public Farmers;\n    mapping(uint256 => Processor) public Processors;\n    mapping(uint256 => Distributor) public Distributors;\n    mapping(uint256 => Retailer) public Retailers;\n\n    // Add Role Functions\n    function addFarmer(\n        address _address,\n        string memory _name,\n        string memory _location\n    ) public onlyByOwner {\n        farmerCtr++;\n        Farmers[farmerCtr] = Farmer(_address, farmerCtr, _name, _location);\n    }\n\n    function addProcessor(\n        address _address,\n        string memory _name,\n        string memory _location\n    ) public onlyByOwner {\n        processorCtr++;\n        Processors[processorCtr] = Processor(\n            _address,\n            processorCtr,\n            _name,\n            _location\n        );\n    }\n\n    function addDistributor(\n        address _address,\n        string memory _name,\n        string memory _location\n    ) public onlyByOwner {\n        distributorCtr++;\n        Distributors[distributorCtr] = Distributor(\n            _address,\n            distributorCtr,\n            _name,\n            _location\n        );\n    }\n\n    function addRetailer(\n        address _address,\n        string memory _name,\n        string memory _location\n    ) public onlyByOwner {\n        retailerCtr++;\n        Retailers[retailerCtr] = Retailer(\n            _address,\n            retailerCtr,\n            _name,\n            _location\n        );\n    }\n\n    function getUserRole(address _user) public view returns (string memory) {\n        for (uint256 i = 1; i <= farmerCtr; i++) {\n            if (Farmers[i].addr == _user) return \"Farmer\";\n        }\n        for (uint256 i = 1; i <= processorCtr; i++) {\n            if (Processors[i].addr == _user) return \"Processor\";\n        }\n        for (uint256 i = 1; i <= distributorCtr; i++) {\n            if (Distributors[i].addr == _user) return \"Distributor\";\n        }\n        for (uint256 i = 1; i <= retailerCtr; i++) {\n            if (Retailers[i].addr == _user) return \"Retailer\";\n        }\n        return \"Unknown\"; // Default if no role found\n    }\n\n    // Stage Transition Functions\n    function plantProduct(uint256 _productId) public {\n        require(\n            _productId > 0 && _productId <= productCtr,\n            \"Invalid product ID\"\n        );\n        uint256 fid = findFarmer(msg.sender);\n        require(fid > 0, \"Unauthorized farmer\");\n        require(\n            ProductStock[_productId].stage == STAGE.Registered,\n            \"Invalid stage transition\"\n        );\n\n        ProductStock[_productId].farmerId = fid;\n        ProductStock[_productId].stage = STAGE.Planted;\n        emit ProductPlanted(_productId, fid);\n    }\n\n    function harvestProduct(uint256 _productId) public {\n        require(\n            _productId > 0 && _productId <= productCtr,\n            \"Invalid product ID\"\n        );\n        uint256 fid = findFarmer(msg.sender);\n        require(\n            fid > 0 && fid == ProductStock[_productId].farmerId,\n            \"Unauthorized farmer\"\n        );\n        require(\n            ProductStock[_productId].stage == STAGE.Planted,\n            \"Invalid stage transition\"\n        );\n\n        ProductStock[_productId].stage = STAGE.Harvested;\n        emit ProductHarvested(_productId, fid);\n    }\n\n    function processProduct(uint256 _productId) public {\n        require(\n            _productId > 0 && _productId <= productCtr,\n            \"Invalid product ID\"\n        );\n        uint256 pid = findProcessor(msg.sender);\n        require(pid > 0, \"Unauthorized processor\");\n        require(\n            ProductStock[_productId].stage == STAGE.Harvested,\n            \"Invalid stage transition\"\n        );\n\n        ProductStock[_productId].processorId = pid;\n        ProductStock[_productId].stage = STAGE.Processed;\n        emit ProductProcessed(_productId, pid);\n    }\n\n    function distributeProduct(uint256 _productId) public {\n        require(\n            _productId > 0 && _productId <= productCtr,\n            \"Invalid product ID\"\n        );\n        uint256 did = findDistributor(msg.sender);\n        require(did > 0, \"Unauthorized distributor\");\n        require(\n            ProductStock[_productId].stage == STAGE.Processed,\n            \"Invalid stage transition\"\n        );\n\n        ProductStock[_productId].distributorId = did;\n        ProductStock[_productId].stage = STAGE.Distributed;\n        emit ProductDistributed(_productId, did);\n    }\n\n    function receiveProduct(uint256 _productId) public {\n        require(\n            _productId > 0 && _productId <= productCtr,\n            \"Invalid product ID\"\n        );\n        uint256 rid = findRetailer(msg.sender);\n        require(rid > 0, \"Unauthorized retailer\");\n        require(\n            ProductStock[_productId].stage == STAGE.Distributed,\n            \"Invalid stage transition\"\n        );\n\n        ProductStock[_productId].retailerId = rid;\n        ProductStock[_productId].stage = STAGE.Retail;\n        emit ProductReceived(_productId, rid);\n    }\n\n    function sellProduct(uint256 _productId) public {\n        require(\n            _productId > 0 && _productId <= productCtr,\n            \"Invalid product ID\"\n        );\n        uint256 rid = findRetailer(msg.sender);\n        require(\n            rid > 0 && rid == ProductStock[_productId].retailerId,\n            \"Unauthorized retailer\"\n        );\n        require(\n            ProductStock[_productId].stage == STAGE.Retail,\n            \"Invalid stage transition\"\n        );\n\n        ProductStock[_productId].stage = STAGE.Sold;\n        emit ProductSold(_productId, rid);\n    }\n\n    // Helper Functions\n    function findFarmer(address _address) private view returns (uint256) {\n        for (uint256 i = 1; i <= farmerCtr; i++) {\n            if (Farmers[i].addr == _address) return i;\n        }\n        return 0;\n    }\n\n    function findProcessor(address _address) private view returns (uint256) {\n        for (uint256 i = 1; i <= processorCtr; i++) {\n            if (Processors[i].addr == _address) return i;\n        }\n        return 0;\n    }\n\n    function findDistributor(address _address) private view returns (uint256) {\n        for (uint256 i = 1; i <= distributorCtr; i++) {\n            if (Distributors[i].addr == _address) return i;\n        }\n        return 0;\n    }\n\n    function findRetailer(address _address) private view returns (uint256) {\n        for (uint256 i = 1; i <= retailerCtr; i++) {\n            if (Retailers[i].addr == _address) return i;\n        }\n        return 0;\n    }\n\n    function addProduct(\n        string memory _name,\n        string memory _description\n    ) public onlyByOwner {\n        require(\n            farmerCtr > 0 &&\n                processorCtr > 0 &&\n                distributorCtr > 0 &&\n                retailerCtr > 0,\n            \"All roles must be registered first\"\n        );\n        productCtr++;\n        ProductStock[productCtr] = AgriculturalProduct(\n            productCtr,\n            _name,\n            _description,\n            0,\n            0,\n            0,\n            0,\n            STAGE.Registered\n        );\n        emit ProductRegistered(productCtr, _name, _description);\n    }\n\n    // Events to match component expectations\n    event ProductRegistered(uint256 indexed id, string name, string description);\n    event ProductPlanted(uint256 indexed id, uint256 farmerId);\n    event ProductHarvested(uint256 indexed id, uint256 farmerId);\n    event ProductProcessed(uint256 indexed id, uint256 processorId);\n    event ProductDistributed(uint256 indexed id, uint256 distributorId);\n    event ProductReceived(uint256 indexed id, uint256 retailerId);\n    event ProductSold(uint256 indexed id, uint256 retailerId);\n}\n",
  "sourcePath": "/home/gunin/Desktop/Hackathon/Supply-Chain-Blockchain/contracts/AgriSupplyChain.sol",
  "compiler": {
    "name": "solc",
    "version": "0.8.0+commit.c7dfd78e.Emscripten.clang"
  },
  "schemaVersion": "3.4.16",
  "updatedAt": "2025-02-23T17:07:32.507Z",
  "networkType": "ethereum",
  "devdoc": {
    "kind": "dev",
    "methods": {},
    "version": 1
  },
  "userdoc": {
    "kind": "user",
    "methods": {},
    "version": 1
  }
}